{
  "contractName": "notas",
  "abi": [
    {
      "inputs": [],
      "stateMutability": "nonpayable",
      "type": "constructor"
    },
    {
      "anonymous": false,
      "inputs": [
        {
          "indexed": false,
          "internalType": "bytes32",
          "name": "",
          "type": "bytes32"
        }
      ],
      "name": "alumn_evaluated",
      "type": "event"
    },
    {
      "anonymous": false,
      "inputs": [
        {
          "indexed": false,
          "internalType": "string",
          "name": "",
          "type": "string"
        }
      ],
      "name": "event_revision",
      "type": "event"
    },
    {
      "inputs": [],
      "name": "professor",
      "outputs": [
        {
          "internalType": "address",
          "name": "",
          "type": "address"
        }
      ],
      "stateMutability": "view",
      "type": "function",
      "constant": true
    },
    {
      "inputs": [
        {
          "internalType": "string",
          "name": "_idAlumn",
          "type": "string"
        },
        {
          "internalType": "uint256",
          "name": "_nota",
          "type": "uint256"
        }
      ],
      "name": "evaluate",
      "outputs": [],
      "stateMutability": "nonpayable",
      "type": "function"
    },
    {
      "inputs": [
        {
          "internalType": "string",
          "name": "_idAlumn",
          "type": "string"
        }
      ],
      "name": "VerNotas",
      "outputs": [
        {
          "internalType": "uint256",
          "name": "",
          "type": "uint256"
        }
      ],
      "stateMutability": "view",
      "type": "function",
      "constant": true
    },
    {
      "inputs": [
        {
          "internalType": "string",
          "name": "_idAlumn",
          "type": "string"
        }
      ],
      "name": "Revision",
      "outputs": [],
      "stateMutability": "nonpayable",
      "type": "function"
    },
    {
      "inputs": [],
      "name": "VerRevisiones",
      "outputs": [
        {
          "internalType": "string[]",
          "name": "",
          "type": "string[]"
        }
      ],
      "stateMutability": "view",
      "type": "function",
      "constant": true
    }
  ],
  "bytecode": "0x608060405234801561001057600080fd5b50336000806101000a81548173ffffffffffffffffffffffffffffffffffffffff021916908373ffffffffffffffffffffffffffffffffffffffff160217905550610ae8806100606000396000f3fe608060405234801561001057600080fd5b50600436106100575760003560e01c80632cd22cd81461005c57806333731af6146100785780635113940d146100a85780637b81880c146100c6578063f22044e6146100e2575b600080fd5b61007660048036038101906100719190610580565b610100565b005b610092600480360381019061008d9190610580565b610176565b60405161009f9190610885565b60405180910390f35b6100b06101c4565b6040516100bd91906107eb565b60405180910390f35b6100e060048036038101906100db91906105c1565b6101e8565b005b6100ea6102f7565b6040516100f79190610806565b60405180910390f35b60028190806001815401808255809150506001900390600052602060002001600090919091909150908051906020019061013b929190610460565b507fdbbb0dd2f74f5331f934d5393da5971f45693b0659d4daa1deaab06eedba07bf8160405161016b9190610843565b60405180910390a150565b6000808260405160200161018a91906107d4565b6040516020818303038152906040528051906020012090506000600160008381526020019081526020016000205490508092505050919050565b60008054906101000a900473ffffffffffffffffffffffffffffffffffffffff1681565b3360008054906101000a900473ffffffffffffffffffffffffffffffffffffffff1673ffffffffffffffffffffffffffffffffffffffff168173ffffffffffffffffffffffffffffffffffffffff1614610277576040517f08c379a000000000000000000000000000000000000000000000000000000000815260040161026e90610865565b60405180910390fd5b60008360405160200161028a91906107d4565b6040516020818303038152906040528051906020012090508260016000838152602001908152602001600020819055507f8a19a1fe4dd3294db6f7091224c4b81bcf192890c4419b0f25c0c2f9683504ff816040516102e99190610828565b60405180910390a150505050565b60603360008054906101000a900473ffffffffffffffffffffffffffffffffffffffff1673ffffffffffffffffffffffffffffffffffffffff168173ffffffffffffffffffffffffffffffffffffffff1614610388576040517f08c379a000000000000000000000000000000000000000000000000000000000815260040161037f90610865565b60405180910390fd5b6002805480602002602001604051908101604052809291908181526020016000905b828210156104565783829060005260206000200180546103c9906109fa565b80601f01602080910402602001604051908101604052809291908181526020018280546103f5906109fa565b80156104425780601f1061041757610100808354040283529160200191610442565b820191906000526020600020905b81548152906001019060200180831161042557829003601f168201915b5050505050815260200190600101906103aa565b5050505091505090565b82805461046c906109fa565b90600052602060002090601f01602090048101928261048e57600085556104d5565b82601f106104a757805160ff19168380011785556104d5565b828001600101855582156104d5579182015b828111156104d45782518255916020019190600101906104b9565b5b5090506104e291906104e6565b5090565b5b808211156104ff5760008160009055506001016104e7565b5090565b6000610516610511846108d1565b6108a0565b90508281526020810184848401111561052e57600080fd5b6105398482856109b8565b509392505050565b600082601f83011261055257600080fd5b8135610562848260208601610503565b91505092915050565b60008135905061057a81610a9b565b92915050565b60006020828403121561059257600080fd5b600082013567ffffffffffffffff8111156105ac57600080fd5b6105b884828501610541565b91505092915050565b600080604083850312156105d457600080fd5b600083013567ffffffffffffffff8111156105ee57600080fd5b6105fa85828601610541565b925050602061060b8582860161056b565b9150509250929050565b600061062183836106bc565b905092915050565b61063281610972565b82525050565b600061064382610911565b61064d8185610934565b93508360208202850161065f85610901565b8060005b8581101561069b578484038952815161067c8582610615565b945061068783610927565b925060208a01995050600181019050610663565b50829750879550505050505092915050565b6106b681610984565b82525050565b60006106c78261091c565b6106d18185610945565b93506106e18185602086016109c7565b6106ea81610a8a565b840191505092915050565b60006107008261091c565b61070a8185610956565b935061071a8185602086016109c7565b61072381610a8a565b840191505092915050565b60006107398261091c565b6107438185610967565b93506107538185602086016109c7565b80840191505092915050565b600061076c602f83610956565b91507f4e6f742068617665207065726d697373696f6e7320666f72206578656375746560008301527f20746869732066756e6374696f6e2e00000000000000000000000000000000006020830152604082019050919050565b6107ce816109ae565b82525050565b60006107e0828461072e565b915081905092915050565b60006020820190506108006000830184610629565b92915050565b600060208201905081810360008301526108208184610638565b905092915050565b600060208201905061083d60008301846106ad565b92915050565b6000602082019050818103600083015261085d81846106f5565b905092915050565b6000602082019050818103600083015261087e8161075f565b9050919050565b600060208201905061089a60008301846107c5565b92915050565b6000604051905081810181811067ffffffffffffffff821117156108c7576108c6610a5b565b5b8060405250919050565b600067ffffffffffffffff8211156108ec576108eb610a5b565b5b601f19601f8301169050602081019050919050565b6000819050602082019050919050565b600081519050919050565b600081519050919050565b6000602082019050919050565b600082825260208201905092915050565b600082825260208201905092915050565b600082825260208201905092915050565b600081905092915050565b600061097d8261098e565b9050919050565b6000819050919050565b600073ffffffffffffffffffffffffffffffffffffffff82169050919050565b6000819050919050565b82818337600083830152505050565b60005b838110156109e55780820151818401526020810190506109ca565b838111156109f4576000848401525b50505050565b60006002820490506001821680610a1257607f821691505b60208210811415610a2657610a25610a2c565b5b50919050565b7f4e487b7100000000000000000000000000000000000000000000000000000000600052602260045260246000fd5b7f4e487b7100000000000000000000000000000000000000000000000000000000600052604160045260246000fd5b6000601f19601f8301169050919050565b610aa4816109ae565b8114610aaf57600080fd5b5056fea2646970667358221220be8ce4652c6cdb2b3549ed26a3d4578d043594e085cebaa2d13ae416e3e71bf864736f6c63430008000033",
  "immutableReferences": {},
  "source": "// SPDX-License-Identifier: MIT\r\npragma solidity ^0.8.0;\r\npragma experimental ABIEncoderV2;\r\n\r\n\r\n//------------------------------------\r\n// ALUMNO  /  ID  /  NOTA\r\n//------------------------------------\r\n// JUAN / 77755N / 8\r\n// MARIA / 88855N / 10\r\n// LUISA / 44455N / 3\r\n\r\ncontract notas {\r\n\r\n    // Direccin del profesor\r\n    address public professor;\r\n\r\n    // Constructor\r\n    constructor () {\r\n        professor = msg.sender;\r\n    }\r\n\r\n    // Mapping para relacionar el has de la identidad del alumno con su nota del examen\r\n    mapping (bytes32 => uint) Ratings;\r\n\r\n    // Array de los alumnos que pidan revisiones de examen\r\n    string [] reviews;\r\n\r\n    // Eventos\r\n    event alumn_evaluated(bytes32);\r\n    event event_revision(string);\r\n\r\n    // Funcin para evaluar a alumnos\r\n    function evaluate(string memory _idAlumn, uint _nota) public UniquetlyProfessor(msg.sender) {\r\n        // Hash de la identificacin del alumno\r\n        bytes32 hash_idAlumn = keccak256(abi.encodePacked(_idAlumn));\r\n        // Relacin entre el hash de la identificacin del alumno y su nota\r\n        Ratings[hash_idAlumn] = _nota;\r\n        // Emision del evento\r\n        emit alumn_evaluated(hash_idAlumn);\r\n    }\r\n\r\n    modifier UniquetlyProfessor(address _direction) {\r\n        // Requiere que la direccin introducida por parametro sea igual al owner del contrato\r\n        require(_direction == professor, \"Not have permissions for execute this function.\");\r\n        _;\r\n    }\r\n\r\n    // Funcion para ver las notas de un alumno\r\n    function VerNotas(string memory _idAlumn) public view returns(uint) {\r\n        // Hash de la identificacin del alumno\r\n        bytes32 hash_idAlumn = keccak256(abi.encodePacked(_idAlumn));\r\n        // Nota asociada al hash del alumno\r\n        uint rating_alumn = Ratings[hash_idAlumn];\r\n        //Visualizar la nota;\r\n        return rating_alumn;\r\n    }\r\n\r\n    // Funcin para pedir revisin del examen\r\n    function Revision(string memory _idAlumn) public {\r\n        // Almacenamiento de la identidad del alumno en un array\r\n        reviews.push(_idAlumn);\r\n        // Emision del evento\r\n        emit event_revision(_idAlumn);\r\n    }\r\n\r\n    // Funcin para ver los alumnos que han solicitado revisin de examen\r\n    function VerRevisiones() public view UniquetlyProfessor(msg.sender) returns (string [] memory) {\r\n        // Devolver las identidades de los alumnos\r\n        return reviews;\r\n    }\r\n\r\n\r\n}",
  "sourcePath": "C:\\Users\\Juan Carlos\\Desktop\\Proyectos personales\\Blockchain\\truffle\\notas\\contracts\\Notas.sol",
  "compiler": {
    "name": "solc",
    "version": "0.8.0+commit.c7dfd78e.Emscripten.clang"
  },
  "schemaVersion": "3.4.7",
  "updatedAt": "2022-06-12T13:13:40.496Z",
  "networkType": "ethereum",
  "devdoc": {
    "kind": "dev",
    "methods": {},
    "version": 1
  },
  "userdoc": {
    "kind": "user",
    "methods": {},
    "version": 1
  }
}